:100000000EC015C014C013C012C011C010C00FC064
:100010000EC00DC00CC00BC029C009C008C01124FF
:100020001FBECFE5D2E0DEBFCDBF21D04FC0E8CFAD
:1000300084B7877F84BF81B5886181BD81E381BD3D
:1000400081B5806481BD85B7877E806185BF85B7B6
:10005000806285BF789485B7806285BF889585B7B3
:100060008F7D85BF85B78F7D85BF0895189587B330
:100070008B6087BB87B38B7E87BB88B3847F88BB4D
:10008000C1E0D4E811BCC7B9D6B9369A3699FECFCB
:1000900084B195B181309240B8F0C39A83ED90E37A
:1000A0000197F1F700C00000C19A88E998E0E3ECFD
:1000B000F9E03197F1F700C00000B49BC09A0197B6
:1000C000B1F7C198C398C098B3DFDCCFF894FFCFE5
:00000001FF
