:100000000EC01DC01CC01BC01AC019C018C017C02C
:1000100016C015C014C013C031C011C010C01124C7
:100020001FBECFE5D2E0DEBFCDBF20E0A0E6B0E04E
:1000300001C01D92A136B207E1F721D062C0E0CF26
:1000400084B7877F84BF81B5886181BD81E381BD2D
:1000500081B5806481BD85B7877E806185BF85B7A6
:10006000806285BF789485B7806285BF889585B7A3
:100070008F7D85BF85B78F7D85BF0895189580B525
:10008000846080BD80B5886080BD80B5826080BDA1
:1000900087B38B6087BB87B38B7E87BB88B3847F36
:1000A00088BBC1E0D4E88091600091E0980F909304
:1000B0006000863220F11092600011BCC7B9D6B939
:1000C000369A3699FECF84B195B181309240B8F01E
:1000D000C39A83ED90E30197F1F700C00000C19A45
:1000E00088E998E0E3ECF9E03197F1F700C000000F
:1000F000B49BC09A0197B1F7C198C398C098A0DF8C
:06010000D2CFF894FFCFFE
:00000001FF
