:100000000EC01DC01CC01BC01AC019C018C017C02C
:1000100016C015C014C013C033C011C010C01124C5
:100020001FBECFE5D2E0DEBFCDBF20E0A0E6B0E04E
:1000300001C01D92A436B207E1F72CD093C0E0CFE7
:10004000379884B7877F84BF81B5886181BD81E39C
:1000500081BD81B5806481BD85B7877E806185BFA4
:1000600085B7806285BF789485B7806285BF8895A3
:1000700085B78F7D85BF85B78F7D85BF379A0895FA
:100080001F920F920FB60F9211240F900FBE0F9078
:100090001F90189580B58F6080BD80B58E7F80BD24
:1000A00087B38B6087BB87B38B7E87BB88B3847E27
:1000B00088BBCCE0DEEF11E004E880916200909113
:1000C000630001969093630080936200859708F423
:1000D00047C01092630010926200D0936100C093F9
:1000E000600011BC17B906B9369A3699FECF84B1B3
:1000F00025B190E0922B8130924090F1C39A83ED2C
:1001000090E30197F1F700C00000C19A8091600070
:10011000909161009C012F5F3F4F309361002093CD
:1001200060008D3A9D40CCF483EC99E00197F1F7A3
:1001300000C00000B499EACF809160009091610006
:10014000181619061CF7C09A9FE322E48FE091501D
:1001500020408040E1F700C00000C198C398C098DB
:080160006FDFABCFF894FFCF75
:00000001FF
