:100000000EC01DC01CC01BC01AC019C018C017C02C
:1000100016C015C014C013C031C011C010C01124C7
:100020001FBECFE5D2E0DEBFCDBF20E0A0E6B0E04E
:1000300001C01D92A436B207E1F721D08BC0E0CFFA
:1000400084B7877F84BF81B5886181BD81E381BD2D
:1000500081B5806481BD85B7877E806185BF85B7A6
:10006000806285BF789485B7806285BF889585B7A3
:100070008F7D85BF85B78F7D85BF0895189580B525
:10008000846080BD80B5886080BD80B5826080BDA1
:1000900087B38B6087BB87B38B7E87BB88B3847E37
:1000A00088BBCCE0DEEF11E004E880916200909123
:1000B00063009C012F5F3F4F3093630020936200E9
:1000C000869708F445C01092630010926200D093A6
:1000D0006100C093600011BC17B906B9369A369911
:1000E000FECF84B195B18130924090F1C39A83EDF7
:1000F00090E30197F1F700C00000C19A8091600081
:10010000909161009C012F5F3F4F309361002093DD
:1001100060008D3A9D40CCF483EC99E00197F1F7B3
:1001200000C00000B499EACF809160009091610016
:10013000181619061CF7C09A9FE322E48FE091502D
:1001400020408040E1F700C00000C198C398C098EB
:0801500077DFABCFF894FFCF7D
:00000001FF
